:020000040800F2
:100000009808002029020008F7180008D1170008F6
:10001000F51800081F040008A11D000800000000DA
:10002000000000000000000000000000FB180008B5
:100030006D05000800000000F91800088D1900087F
:10004000430200084302000843020008430200087C
:10005000430200084302000843020008430200086C
:10006000430200084302000843020008430200085C
:10007000A5040008430200084302000843020008E8
:10008000430200084302000843020008430200083C
:10009000430200084302000843020008430200082C
:1000A000430200084302000843020008430200081C
:1000B000430200084302000843020008430200080C
:1000C00043020008430200084302000843020008FC
:1000D000430200084302000843020008891D00088B
:1000E00043020008430200084302000843020008DC
:1000F00043020008430200084302000843020008CC
:1001000043020008430200084302000843020008BB
:1001100043020008430200084302000843020008AB
:1001200043020008B104000843020008430200082B
:10013000430200084302000843020008430200088B
:10014000430200084302000843020008430200087B
:1001500043020008BD04000843020008951D000882
:10016000430200084302000843020008430200085B
:100170004302000843020008430200080000000098
:10018000430200084302000800F002F800F03CF8C7
:100190000AA090E8000C82448344AAF10107DA45E2
:1001A00001D100F031F8AFF2090EBAE80F0013F0F8
:1001B000010F18BFFB1A43F001031847801C000011
:1001C000A01C0000103A24BF78C878C1FAD85207A2
:1001D00024BF30C830C144BF04680C6070470000C1
:1001E0000023002400250026103A28BF78C1FBD840
:1001F000520728BF30C148BF0B6070471FB501F0E0
:1002000007FE1FBD10B510BD00F0CFF81146FFF777
:10021000F5FF01F0D7FD00F0EDF803B4FFF7F2FFB2
:1002200003BC00F0F5F80000094880470948004782
:10023000FEE7FEE7FEE7FEE7FEE7FEE7FEE7FEE796
:10024000FEE7FEE704480549054A064B70470000F3
:10025000251A00088901000898020020980800204B
:10026000980400209804002053EA020C00F06980F2
:100270002DE9F04B4FF00006002B1FBFB3FA83F5BA
:1002800003FA05F424FA05F65E4012BF1643B2FAEB
:1002900082F502FA05F4C5F120051EBF22FA05FC1D
:1002A00044EA0C04203556EA044C4FEA144418BFC3
:1002B000641C4FF000084FF00009904271EB030CF2
:1002C00039D3002919BFB1FA81F701FA07F6B0FA5C
:1002D00080F700FA07F6C7F120071EBF20FA07FCD7
:1002E00046EA0C062037B6FBF4FCA7EB0507103FE7
:1002F00007F01F0BCBF120060CFA0BFB2CFA06F6CD
:1003000044BFB3460026202FA4BF5E464FF0000B2B
:100310005BEA060C08BF4FF0010B19EB0B09ABFBB6
:10032000027C48EB0608C01B06FB02CC0BFB03CC8F
:1003300071EB0C01C1E70B46024641464846BDE859
:10034000F08B13B54FF000004FF00001AFF30080C9
:10035000BDE81C4070474FF0000200B513469446BC
:100360009646203922BFA0E80C50A0E80C50B1F10D
:100370002001BFF4F7AF090728BFA0E80C5048BF21
:100380000CC05DF804EB890028BF40F8042B08BFBF
:10039000704748BF20F8022B11F0804F18BF00F8BB
:1003A000012B7047704770477047754600F02CF876
:1003B000AE4605006946534620F00700854618B052
:1003C00020B5FFF73FFFBDE820404FF000064FF09B
:1003D00000074FF000084FF0000B21F00701AC467A
:1003E000ACE8C009ACE8C009ACE8C009ACE8C00999
:1003F0008D46704710B50446AFF300802046BDE837
:100400001040FFF70ABF0000004870473402002088
:1004100001491820ABBEFEE7260002007047FEE748
:100420000A88C2F30A02A2F5806202804A788B78B9
:10043000D20842EA4312C2F30A02A2F58062428065
:100440008A78CB78920942EA83020B7942EA8322C6
:10045000C2F30A02A2F5806282800A794B795208BF
:1004600042EAC312C2F30A02A2F58062C2800A8A7B
:10047000C2F30A02A2F5806202814A79920982726D
:100480004A79C2F30112C272CA8882810A89C28182
:100490004A8902820A7B82744A7BC274C98981823A
:1004A00070470000014800F0BFB80000980000202D
:1004B000014800F0B9B80000F8000020014800F041
:1004C000B3B800005801002001681823CAB2103ADE
:1004D000B2FBF3F2054B6FF30901032A9B5CC36582
:1004E00000D9091D81650846704700001A1E0008E2
:1004F00010B5014600208B698A6A4FF0C07453B171
:10050000B3F5005F15D072B1012A0CD0022A0AD0CF
:10051000032A09D104E01AB1012A06D0022A03D124
:10052000C96AC90100D5012010BDC96AA142FAD02B
:1005300010BD002AF7D0012AF2D0022AF3D0032AF4
:10054000F3D010BD30B50468256825F480252560FA
:10055000046863608368402B036803D09960006877
:10056000C26030BD9A600068C16030BD704772B62D
:10057000FEE72DE9F0410446876D00F0F3FA0646E8
:1005800094F835000025022806D08020606584F8A4
:1005900034500120BDE8F0812068016821F0160187
:1005A00001602068416921F080014161206C08B937
:1005B000A06C20B12068016821F00801016020686A
:1005C000016821F0010101600CE000F0CBFA801B12
:1005D000052807D920206065032084F8350084F8B9
:1005E0003450D7E720680068C007EED194F85C105B
:1005F0003F208840B860012084F8350084F83450EA
:100600000020C7E790F83510022903D0802141650A
:1006100001207047052180F835100068016821F03D
:1006200001010160002070472DE9F84304464FF0B6
:100630000009CDF8009063484FF41651A56D00688D
:10064000B0FBF1F72E6894F85C10082000FA01F175
:1006500031420FD021680A6852070BD50A6822F090
:1006600004020A6094F85C108840A860606D40F055
:100670000100606594F85C104FF0010808FA01F081
:10068000304208D021684969090604D5A860606D28
:1006900040F00200606594F85C100420884030420D
:1006A00008D021680968890704D5A860606D40F00A
:1006B0000400606594F85C1010208840304218D027
:1006C00021680968090714D5A860206801684903F2
:1006D00004D50068000308D5A16C07E00168C905CE
:1006E00003D4016821F008010160216C09B12046A2
:1006F000884794F85C1020208840304231D021682F
:100700000968C9062DD5A86094F835000528206829
:10071000016806D0490347D5006800031DD4616C09
:100720001CE021F0160101602068416921F0800180
:100730004161206C08B9A06C20B12068016821F0EB
:100740000801016094F85C103F208840A86084F89C
:10075000358084F83490216D1FE0E16B09B12046AB
:100760008847606D00282BD0606DC00714D005202D
:1007700084F835002068016821F0010101600098CB
:10078000401C0090B84203D820680068C007F6D12A
:1007900084F8358084F83490E16C002910D001B0E1
:1007A0002046BDE8F04308470168C905D5D4016873
:1007B00021F01001016084F8358084F83490CCE792
:1007C000BDE8F8830C0000202DE9F041044600F05C
:1007D000C9F906465CB1022084F83500002584F88A
:1007E00034502068016821F0010101600DE0012012
:1007F000BDE8F08100F0B6F9801B052805D920205E
:100800006065032084F83500F2E720680068C007BF
:10081000F0D12268116820480140D4E9010318434F
:10082000D4E903363343184363691843A369184373
:10083000E3691843236A18430843616A042903D112
:10084000D4E90B1319430843106020684069666AB5
:1008500020F0070130460E43012704280CD1A06A7E
:100860000643E06A40B12046FFF742FE20B1402037
:10087000606584F83570BAE7206846612046FFF766
:1008800023FE94F85C203F2191408160656584F8E7
:1008900035700020ACE700003F8010F070B50446D2
:1008A00090F83400002501280CD0012084F8340091
:1008B00094F835600020012E06D084F8340002251B
:1008C000284670BD022070BD022684F83560606540
:1008D0002046FFF737FE2068016841F00101016002
:1008E000EEE72DE9F0410446866D90F834000025CE
:1008F00001280DD0012084F8340094F835700020D0
:10090000012F07D084F8340002252846BDE8F08185
:100910000220FBE7022784F8357060652046FFF768
:1009200011FE94F85C103F208840B0602068016898
:1009300041F016010160206C20B12068016841F08F
:10094000080101602068016841F001010160DCE7F5
:1009500070B5044600F006F90546601C02D0044854
:100960000078044400F0FEF8401BA042FAD370BDAA
:10097000000000202DE9F84FDFF8BCA1002201257E
:100980000AF1040B03264FF00F090BF1040E00BF10
:100990000B6805FA02F42340A34270D10F7907F0E7
:1009A0000307012F01D0022F16D187684FEA4208B2
:1009B00006FA08FC27EA0C07D1F80CC00CFA08FC70
:1009C0004CEA070CC0F808C04768A7430C79C4F389
:1009D000001494403C4344600C79E443A4070AD0DB
:1009E000C4684FEA420C06FA0CF7BC438F6807FA5A
:1009F0000CF72743C7600C7904F00304022C12D1D2
:100A0000D40800EB840CDCF820405707FF0E09FAED
:100A100007F824EA0804D1F8108008FA07F848EA31
:100A20000408CCF8208004684FEA420C06FA0CF760
:100A3000BC430F7907F0030707FA0CF72743076059
:100A40004C6814F4403F70D03C4C276847F4804712
:100A50002760246822F0030704F480440094384C93
:100A600007EB040CDCF8084897074FEA177809FAF7
:100A700008F7BC43334FB84202D1002724E054E0CA
:100A8000314FB84201D101271EE0304FB84201D1A9
:100A9000022719E02E4FB84201D1032714E02D4F51
:100AA000B84201D104270FE02B4FB84201D10527EE
:100AB0000AE02A4FB84201D1062705E0284FB84284
:100AC00001D1072700E0082707FA08F72743CCF8E9
:100AD0000878DAF800405746D1F804C09C435FEA32
:100AE000CC3C00D51C433C60DBF800405F46D1F8AD
:100AF00004C09C435FEA8C3C00D51C433C60DEF89C
:100B000000407746D1F804C09C435FEACC2C00D566
:100B10001C433C60084F0C373C68D1F804C09C4330
:100B20005FEA8C2C00D51C433C60521C102AFFF459
:100B30002FAFBDE8F88F0000003C01404438024070
:100B40000030014000000240000402400008024062
:100B5000000C024000100240001402400018024045
:100B6000001C02400148806870470000000000201F
:100B700002488168027811448160704700000020BB
:100B80000B4810B5016841F400710160016841F43F
:100B900080610160016841F480710160032000F010
:100BA0006FF80F2000F006F800F024F8002010BDC8
:100BB000003C024070B50D4D04464FF47A71287820
:100BC000B1FBF0F00A490968B1FBF0F000F00CFB52
:100BD00048B9102C07D200222146501E00F030F8F0
:100BE00000206C6070BD012070BD0000000000207E
:100BF0000C0000200A4808B5016841F480410160FA
:100C0000006800F4804000900548001F016841F032
:100C100080510160006800F08050009008BD000025
:100C200044380240002809DB00F01F0201219140F6
:100C30004009800000F1E020C0F80011704700007A
:100C4000F0B40E4B1B680C46C3F30223C3F1070537
:100C5000042D00D90425191D072901D2002300E025
:100C6000DB1E012606FA05F1491E214099409E40EF
:100C7000761E16403143F0BC01F093B80CED00E055
:100C8000064900F0070208684FF6FF03184040EAE3
:100C90000220034A10430860704700000CED00E09A
:100CA0000000FA052DE9F0470E46050065D0DFF893
:100CB0001481D8F80000F7B200F00700B04207D264
:100CC00088F80070D8F8000000F00700B04254D156
:100CD00028683D4C810712D5400703D5206840F4B1
:100CE000E05020602878000703D5206840F4604079
:100CF00020602068A96820F0F00008432060287870
:100D0000C0072DD0304968680839012812D0022860
:100D100013D0032811D00968890700292DDA21682A
:100D200021F0030101432160FFF71CFF814641F2DE
:100D3000883A0EE009688903EFE709688901ECE762
:100D4000FFF710FFA0EB0901514502D90320BDE8D0
:100D5000F0872068696800F00C00B0EB810FEFD1DC
:100D6000D8F80010404601F00701B14207D90770DA
:100D7000006800F00700B04201D00120E7E72878C2
:100D8000400705D52068E96820F4E050084320605A
:100D90002878000706D52068296920F4604040EAD9
:100DA000C100206000F038F82168084AC1F303113F
:100DB000515CC8400649086006480068FFF7FAFE23
:100DC0000020C4E7003C024008380240221E000810
:100DD0000C00002004000020044805490068096850
:100DE000044AC1F38221515CC84070470C000020C6
:100DF00008380240321E00080448054900680968A6
:100E0000044AC1F34231515CC84070470C000020D5
:100E100008380240321E0008154810B5006810F06E
:100E20000C02144813D01449042A0FD0082A0ED1FA
:100E30000F4C241F2268236802F03F025B0207D593
:100E40002068C0F38810A0FB010106E0084610BD31
:100E50002168C1F38811A1FB00010023FFF704FA08
:100E60002168C1F30141491C4900B0FBF1F010BDFC
:100E7000083802400024F40040787D012DE9F84F45
:100E800004006ED02078DFF84C93C007A9F1040568
:100E90004AD009F104000168C1F38101012908D099
:100EA0000068C0F3810002280AD1D9F8000040028E
:100EB00006D52868800337D560680028E1D033E084
:100EC0006068B0F5803F10D0B0F5A02F286810D032
:100ED00020F480302860286820F480202860606832
:100EE000A8B1FFF73FFE06460DE0286840F48030C9
:100EF000F4E740F480202860F7E700BFFFF732FEF8
:100F0000801B642873D828688003F7D50CE0FFF7AE
:100F100029FE064605E000BFFFF724FE801B64287B
:100F2000F0D828688003F7D42078DFF8AC828007F7
:100F30004FF0000A3ED5A748001D016811F00C0FC4
:100F400008D00068C0F3810002280BD1D9F8000056
:100F5000400207D42868800716D5E068012800D130
:100F600012E033E1E068B8B10120C8F80000FFF7F3
:100F7000F9FD064605E000BFFFF7F4FD801B0228DF
:100F8000C0D828688007F7D52868216920F0F800C4
:100F900040EAC10028600DE0C8F800A0FFF7E2FDBC
:100FA000064604E0FFF7DEFD801B02281FD82868F4
:100FB0008007F7D42078000722D5864F87486169DB
:100FC000703771B101210160FFF7CCFD064604E0E6
:100FD000FFF7C8FD801B022809D838688007F7D5BD
:100FE0000EE0C0F800A0FFF7BDFD064605E082E078
:100FF000FFF7B8FD801B02287DD838688007F7D43A
:101000002078400768D5DFF8CCB100270BF13C0B06
:10101000DBF80000C0000BD4DBF8001041F0805179
:10102000CBF80010DBF80000012700F080500090A2
:101030006B4E3068C00510D4306840F4807030606A
:10104000FFF790FD009005E0FFF78CFD0099401A36
:10105000022850D83068C005F6D55E4EA0686C36C0
:1010600001280FD00528306810D020F00100306032
:10107000306820F004003060A068B8B1FFF772FD5E
:1010800000900FE0306840F00100F4E740F0040009
:101090003060F7E7FFF766FD0099411A41F28830AA
:1010A000814266D830688007F4D50EE0FFF75AFD1C
:1010B000009007E0FFF756FD0099411A41F2883091
:1010C000814256D830688007F4D42FB1DBF8001085
:1010D00021F08051CBF80010A069C8B33D49091D2B
:1010E0000968C1F3810102294AD00228504607D07D
:1010F000C8F8600000E03CE0FFF734FD04463BE048
:101100004746C8F86000FFF72DFD064605E000BF22
:10111000FFF728FD801B02282BD828688001F7D410
:10112000D4E907010843A16A2E4A490802EB0141AC
:10113000626A41EA8211084394F82C1040EA016186
:10114000C9F8001001203866FFF70CFD044606E0E0
:101150003EE000BFFFF706FD001B022809D8286803
:101160008001F7D534E000BFFFF7FCFC001B02282C
:1011700002D90320BDE8F88F28688001F4D427E065
:101180000128F7D0D9F80000E26900F4800191420B
:101190001CD1226A00F03F01914217D147F6C0717D
:1011A000626A0140B1EB821F10D1A26A4FF0FF3397
:1011B00000F4403103EB5202B1EB024F06D194F838
:1011C0002C1000F07060B0EB016F01D00120D1E76E
:1011D0000020CFE70438024000004742800E47421B
:1011E000007000400000FFFF10B5401EB0F1807F8E
:1011F00001D3012010BD4FF0E02460610F21601782
:1012000000F0CFFD0020A06107202061002010BD6C
:101210007047704710B401680A68D2065ED50A6844
:101220004968816B304A096891420AD02F4A91423D
:1012300007D02D4A6032914203D02C4A603291424D
:1012400001D1202222E0284B1833DA1499421DD014
:10125000264B1833994219D0234B7833994215D035
:10126000224B7833994211D01F4B9202303399426E
:101270000CD01E4B3033994208D01B4B903399420F
:1012800004D01A4B9033994200D092010B6823F09E
:1012900001030B60816B154B09684833994202D9F1
:1012A0001249091F05E0104BA833994203D90F4991
:1012B00008390A6008E00C4C0B4B4834103BA14243
:1012C00001D9DA6000E09A60826B818D126851600A
:1012D000816B09680A6842F001020A60816A10BCE9
:1012E0000348FFF79DB80000106002401064024000
:1012F000B8010020F8B5016804460868CA684B695F
:1013000010F00F0F4FF0000559D003F0010602F462
:101310009077374365D0C10705D0D10503D5216C3F
:1013200041F001012164410705D5D90703D0216CA3
:1013300041F002012164810705D5D90703D0216C52
:1013400041F004012164010707D502F02001314377
:1013500003D0216C41F008012164216C00293AD0AE
:10136000800604D5900602D5204600F027FC2068B0
:101370004069216CC0F38010090700D460B3204697
:1013800000F0ABFB20684069400621D5206814308E
:1013900050E8001F21F0400140E80012002AF5D17A
:1013A000A06BA8B16C490165A06BFFF72BF9002871
:1013B00011D0A06B016D01B0BDE8F0400847830675
:1013C0000FD593060DD52046BDE8F84000F0F6BBDA
:1013D0002046FFF71EFFF8BD2046FFF71AFF2564E1
:1013E000F8BD266B2023012E79D1C60677D5D60607
:1013F00075D50868486800904869400640D5A16BDB
:10140000086840680004000CEAD0A28D8242E7D947
:10141000E085C869B0F5807F2DD020680C3050E899
:10142000001F21F4807140E80012002AF5D12068E5
:10143000143050E8001F21F0010140E80012002A9A
:10144000F5D12068143050E8001F21F0400140E839
:101450000012002AF5D184F83E30256320680C3054
:1014600050E8001F21F0100140E80012002AF5D1D9
:10147000A06BFFF77EF8A08DE18D401A81B229E0C4
:10148000A08DE18D401A81B2E08D0028A8D00029FE
:10149000A6D020680C3050E8002F22F4907240E86B
:1014A0000026002EF5D12068143050E8002F22F0DD
:1014B000010240E80026002EF5D184F83E30256375
:1014C00020680C3050E8002F22F0100240E8002382
:1014D000002BF5D12046FFF79BFEF8BDFFE7050680
:1014E0002BD5150629D594F83D002128F5D1A06803
:1014F000B0F5805F01D12069B0B1206A411C216242
:10150000216800784860E08C401E0004000CE084F4
:10151000E3D12068C16821F08001C1602068C16802
:1015200041F04001C160D8E7206A0088C0F308009C
:101530004860206A801C2062E5E74006CDD5500651
:10154000CBD5CA68204622F04002CA6084F83D30FC
:1015500000F03CF9C1E70000351A000870B504003E
:1015600004D094F83D00002510B106E0012070BDC4
:1015700084F83C50204600F023F8242084F83D00F5
:101580002068C16821F40051C160204600F076FB5C
:101590002068016921F4904101612068416921F0CE
:1015A0002A0141612068C16841F40051C16025648D
:1015B000202084F83D0084F83E00002070BD00002B
:1015C0002DE9F04387B0064614216846FEF7C3FEB6
:1015D0004F484E4D31680222032300240715A942CB
:1015E00038D14B4910310D6845F480250D600968EC
:1015F00001F480210591016841F004010160006857
:10160000694600F00400059098028DE81500072057
:10161000CDE903303F48FFF7ADF9404D3E48286023
:101620007804C5E90104C5E90347C0146C61C5E944
:1016300006402C6228466C62FFF7C6F808B1FEF738
:1016400096FFB563002211462720AE63FFF7F8FA34
:10165000272055E0324DA94254D12D4914310D684F
:1016600045F020050D60096801F020010591016831
:1016700041F0400101600068694600F040000590BB
:101680004FF484408DE815000820CDE9033025484B
:10169000FFF770F9214D244860354FF0206828602D
:1016A000C5E90184C5E903476C614FF48039AC6139
:1016B000C5E9074928466C62FFF786F808B1FEF7CE
:1016C00056FFB563AE63154D1748C0357830E5E871
:1016D0000208402091C5114845F81449C030AC615A
:1016E000C5E907496C62FFF76FF808B1FEF73FFFE5
:1016F0007563002211464720AE63FFF7A1FA472029
:10170000FFF790FA07B0BDE8F08300000048004002
:101710003038024000080240286002409800002053
:1017200000140140001802402864024030B40368ED
:10173000DC6844F01004DC6030BC00F003BA704791
:1017400070B5044690F83D00202836D191B38AB395
:1017500094F83C00012830D0012084F83C0021623C
:10176000A284E28400252564212084F83D00636B77
:101770001348D863636B13481864636B1248D864CA
:10178000606B134605652668606B321DFFF7A9F88C
:1017900021686FF04000086084F83C5020681430E5
:1017A00050E8001F41F0800140E80012002AF5D106
:1017B000002070BDFFE70120FBE70220F9E70000F1
:1017C0008F1A0008D11A0008451A000870477047A0
:1017D000FEE70000154808B5016841F400110160FA
:1017E000016801F400110091016841F48001016079
:1017F0000068002200F48000009011460C20FFF7E2
:101800001FFA0C20FFF70EFA002211463920FFF7CD
:1018100017FA3920FFF706FA002211464520FFF794
:101820000FFABDE808404520FFF7FCB93038024008
:10183000114808B5016841F040010160016801F0FC
:1018400040010091016841F001010160016801F06F
:1018500001010091016841F004010160016801F09B
:1018600004010091016841F080010160006800F00E
:101870008000009008BD0000303802400D4810B5CF
:101880000B4901600C49416000214FF48062816086
:10189000C0E903120C22C0E90521C161FFF75EFE19
:1018A000002803D0BDE81040FEF761BE10BD000067
:1018B0000048004010000020A08601000C4810B530
:1018C0000A4901604FF4E1314160002181600C223E
:1018D000C160C0E904128161C161FFF73FFE0028C9
:1018E00003D0BDE81040FEF742BE10BD0014014019
:1018F00054000020FEE7FEE7704770473FB589B00F
:10190000AA218DF80010FF218DF801108DF802003A
:1019100008208DF803009DF828008DF804009DF83C
:1019200029008DF805009DF82C008DF806009DF823
:101930002D008DF807009DF830008DF808009DF807
:1019400031008DF809009DF840008DF80A00002252
:101950009DF841008DF80B000C2113466C460020C9
:10196000255C401C2A44D2B21344C0B2DBB20C281E
:10197000F6D36254491C1E22635421460248FFF7E5
:10198000DFFE0DB030BD000054000020FFF7F0B8BE
:1019900030B593B030216846FEF7DDFC14210CA869
:1019A000FEF7D9FC1D480025016841F08051016017
:1019B000006800F0805011901948016841F480419E
:1019C00001600068022400F480401190012003901F
:1019D00010200490009406940820CDE90750A82018
:1019E000CDE9090404200B906846FFF747FA08B1D7
:1019F00072B6FEE70CA90F2081E831004FF4A05029
:101A00000F904FF48050109005210CA8FFF74AF971
:101A1000002801D072B6FEE713B030BD4038024056
:101A2000007000400248016841F470010160704795
:101A300088ED00E010B5806B0021C185C184FFF7FF
:101A4000E8FB10BD70B5846B2068406994F83D10C8
:101A5000C0F3C0100025212904D118B1E584204627
:101A600000F062F82068406994F83E10C0F38010DE
:101A7000222904D118B1E585204600F02EF8206C0B
:101A800040F0100020642046FFF7C3FB70BD10B586
:101A90000146806B09680968C90516D40021C18414
:101AA0000168143151E8002F22F0800241E8002340
:101AB000002BF5D101680C3151E8002F42F04002B3
:101AC00041E80023002BF5D110BDFFF77FFE10BDCC
:101AD00010B5806BFFF77BFE10BD01680C3151E83B
:101AE000002F22F4907241E80023002BF5D1016809
:101AF000143151E8002F22F0010241E80023002BAD
:101B0000F5D1016B012909D101680C3151E8002F91
:101B100022F0100241E80023002BF5D1202180F8AB
:101B20003E1000210163704701680C3151E8002F1D
:101B300022F0C00241E80023002BF5D1202180F8DB
:101B40003D107047F8B5044690F83E00202833D188
:101B500079B372B394F83C0001282DD0012084F8A9
:101B60003C00A162A28500252564222084F83E0065
:101B7000A06B134605650846A66B216802463046F1
:101B8000091DFEF78BFE206801684168009184F80A
:101B90003C50C16841F48071C1602068416941F0E6
:101BA000010141612068416941F04001416100202B
:101BB000F8BDFFE70120FBE70220F9E708B590F840
:101BC0003E10222901D0022008BD82684FF48053C4
:101BD0009A4201D1016921B1816A9A421BD04AB16E
:101BE0000AE00268816A5268C2F308020A80816AC8
:101BF000891C08E0026972B10268526802F07F0233
:101C00000A70816A491C8162C18D491E0904090C50
:101C1000C18503D019E002685268F1E70168CA681B
:101C200022F02002CA600168CA6822F48072CA6089
:101C300001684A6922F001024A61202180F83E10C1
:101C4000016B012903D0FFF77AFD002008BD0021B8
:101C5000016301680C3151E8002F22F0100241E8C5
:101C60000023002BF5D101680A68D20602D50A6864
:101C700049680091818DFFF7CBFAE6E770B504461D
:101C800000680169E26821F4405111430161216952
:101C9000A068E26908436169114308432168CA6882
:101CA00049F20C639A430243CA6020684169A26901
:101CB00021F440711143416131492068884202D0CA
:101CC0003049884202D1FFF797F801E0FFF784F826
:101CD000E2690023192164253226B2F5004F6268BB
:101CE00028D0A0FB0101930F9200FEF7BDFA014638
:101CF000B0FBF5F06FF01802504301EB800006EBEB
:101D00000010B0FBF5F000F0F002B1FBF5F002EBD3
:101D10000012B1FBF5F06FF01803584301EB80009F
:101D200006EB0010B0FBF5F000F00F002168104446
:101D3000886070BDA0FB010192185B41FEF794FA28
:101D40000146B0FBF5F00201B1FBF5F06FF01803AE
:101D5000584301EB800006EBC000B0FBF5F000F04B
:101D6000F80002EB4002B1FBF5F0584301EB8000B4
:101D700006EBC000B0FBF5F000F00700D6E700006E
:101D800000100140001401400148FFF743BA000071
:101D9000100000200148FFF7ADBA000054000020F9
:101DA000FEE70907090E002804DB00F1E02080F8B7
:101DB0000014704700F00F0000F1E02080F8141DBF
:101DC0007047000008B5FEF7DBFEFFF7E1FDFFF707
:101DD0002FFDFFF7FFFCFFF751FDFFF76FFD6422BA
:101DE00008490948FFF7A2FC084CE0880090A38846
:101DF0006288B4F90010F120FFF780FD6420FEF73F
:101E0000A7FDF2E7CE01002010000020B80100205D
:101E10004FF04070E1EE100A704700061016000601
:101E20001016000000000000000001020304060775
:101E30000809000000000102030400005C1E000805
:101E40000000002010000000C40100086C1E000803
:101E50001000002088080000E001000801000000D8
:0C1E600010000000000000000024F4004E
:040000050800018965
:00000001FF
